:0300000002025E9B
:0C025E00787FE4F6D8FD7581280202A527
:04053F000225000091
:1004C6005389F0438901758A66758CFCC28DD28C7E
:0704D600D2A9D2AFC2B92286
:050003001204C680FE9E
:03000B00020427C5
:10042700C0E0C0D0758A66758CFC0526E52670028B
:100437000525C394E8E5259403400875250075262E
:0804470000B2A4D0D0D0E032D5
:1004AD00D3EF9400EE9400400F7D0B7CBEDCFEDD9F
:0804BD00FCEF1F70EB1E80E84C
:0104C5002214
:1004F300D3EF9400EE9400400B7D19DDFEEF1F70E7
:04050300EF1E80EC7B
:0105070022D1
:06051C00C2A58F80D2A7EA
:080522007F027EEFDEFEDFFC2C
:01052A0022AE
:0A052B00C2A612051CC2A702052299
:10047200CFCDCFCECCCE1202097C007D0A1202096A
:04048200ED2430FF36
:0A048600D2A612051CC2A70205222F
:1004DD00AE07BE0104ED148006BE0209ED243F44B3
:0604ED0080FF12052B2226
:100508007F3812052B7F0C12052B7F0612052B7FD7
:040518000102052BAC
:0A053500AC031204DDAF04020486DB
:06044F008B228A238924A0
:100455001204DDE4FDAB22AA23A9248D8275830055
:0C0465001201CAFF60061204860D80E937
:010471002268
:0C03F4007F0AEA24FFFDE434FFFC7E00D9
:080400008E1E8F1F8C208D2140
:100408007F017E00E4FBEBC39521E5206480F8744E
:0E0418008098500AAC1EAD1F1201F70B80E851
:0104260022B3
:040490008A118B1230
:100494001204DDAA13EAD39400400D1203F4AC1144
:0804A400AD121204721A80ED82
:0104AC00222D
:100349001204DDC3EA64809480400B7F2B1204867B
:100359008A0D8B0E800E7F2D120486C3E49BF50E49
:10036900E49AF50DAA0CEAD39400400D1203F4ACFB
:090379000DAD0E1204721A80EDA4
:010382002258
:040383008A168B1734
:100387001204DDAA18EAD3940040297F101203F65D
:10039700AC16AD17CFCDCFCECCCE120209EF540F8E
:1003A700FEC3940AEE5004243080022437FF12045F
:0403B700861A80D151
:0103BB00221F
:0403BC008A1B8B1CF1
:1003C0001204DDAA1DEAD394004028EA24FFFDE4CC
:1003D00034FFFC7F027E00120400AC1BAD1CCFCDAD
:1003E000CFCECCCE120209EF54012430FF12048686
:0303F0001A80D29E
:0103F30022E7
:10000E00E4F527F5287590FFC2932094177F407E64
:10001E00061204F33094FD7F407E061204F375271A
:10002E000075280D2095177F407E061204F330953B
:10003E00FD7F407E061204F3752700752809209671
:10004E00177F407E061204F33096FD7F407E061227
:10005E0004F37527007528052097177F407E06123A
:10006E0004F33097FD7F407E061204F3752700756A
:10007E0028017590FFC2922094177F407E061204CD
:10008E00F33094FD7F407E061204F3752700752829
:10009E000E2095177F407E061204F33095FD7F40AB
:1000AE007E061204F375270075280A2096177F40E6
:1000BE007E061204F33096FD7F407E061204F37521
:1000CE0027007528062097177F407E061204F3300E
:1000DE0097FD7F407E061204F37527007528027582
:1000EE0090FFC2912094177F407E061204F3309445
:1000FE00FD7F407E061204F375270075280F2095AC
:10010E00177F407E061204F33095FD7F407E061267
:10011E0004F375270075280B2096177F407E061274
:10012E0004F33096FD7F407E061204F375270075AA
:10013E0028072097177F407E061204F33097FD7F25
:10014E00407E061204F37527007528037590FFC2D2
:10015E00902094177F407E061204F33094FD7F406A
:10016E007E061204F37527007528102095177F4020
:10017E007E061204F33095FD7F407E061204F37561
:10018E00270075280C2096177F407E061204F33048
:10019E0096FD7F407E061204F37527007528082011
:1001AE0097177F407E061204F33097FD7F407E0640
:0B01BE001204F3752700752804AF2819
:0101C9002213
:1002EA0020B1147F407E061204F330B1FD7F407EB8
:1002FA00061204F37F012220B0147F407E06120406
:10030A00F330B0FD7F407E061204F37F022220B252
:10031A00147F407E061204F330B2FD7F407E06123F
:10032A0004F37F032220B3147F407E061204F330C5
:0F033A00B3FD7F407E061204F37F04227F002272
:10026A00020003E493A3F8E493A34003F68001F2A7
:10027A0008DFF48029E493A3F85407240CC8C33395
:10028A00C4540F4420C8834004F456800146F6DF64
:10029A00E4800B010204081020408090053FE47EB0
:1002AA00019360BCA3FF543F30E509541FFEE49359
:1002BA00A360010ECF54C025E060A840B8E493A320
:1002CA00FAE493A3F8E493A3C8C582C8CAC583CA4B
:1002DA00F0A3C8C582C8CAC583CADFE9DEE780BE03
:0105430000B7
:1001CA00BB010CE58229F582E5833AF583E02250EA
:1001DA0006E92582F8E622BBFE06E92582F8E22234
:0D01EA00E58229F582E5833AF583E493224E
:1001F700EF8DF0A4A8F0CF8CF0A428CE8DF0A42E1C
:02020700FE22D5
:10020900BC000BBE0029EF8DF084FFADF022E4CCD9
:10021900F875F008EF2FFFEE33FEEC33FCEE9DECA2
:10022900984005FCEE9DFE0FD5F0E9E4CEFD22EDE8
:10023900F8F5F0EE8420D21CFEADF075F008EF2F32
:10024900FFED33FD4007985006D5F0F222C398FD23
:050259000FD5F0EA22C0
:00000001FF
