:0300000002007E7D
:0C007E00787FE4F6D8FD75810702002AA7
:10004C00D3EF9400EE9400400F7D0B7CBEDCFEDD04
:08005C00FCEF1F70EB1E80E8B1
:010064002279
:040065007FE47E0CAA
:10006900D3EF9400EE9400400B7D19DDFEEF1F7075
:04007900EF1E80EC0A
:01007D002260
:1000030020B1061200657F012220B0061200657F31
:10001300022220B2061200657F032220B3061200DB
:07002300657F04227F00222B
:10002A00120003EF24FE600E14600F146010240304
:10003A0070EEB2A080EAB2A180E6B2A280E2B2A3D8
:02004A0080DE56
:00000001FF
