:03000000020003F8
:0C000300787FE4F6D8FD75811A02004AEF
:1000E60011083F065B4F666D7D077F6F777C395E33
:0300F6007971001D
:1000CD00D3EF9400EE9400400F7D027CEFDCFEDD5B
:0800DD00FCEF1F70EB1E80E830
:0100E50022F8
:10008F00751900751A01C37408951AFFEFA2E29251
:10009F00A4A2E192A31392A27408251AF8E6F580A0
:1000AF00D2877F017E001200CD051AE51A70020576
:0E00BF0019D39408E5196480948040CA80C269
:10000F0002008FE493A3F8E493A34003F68001F278
:10001F0008DFF48029E493A3F85407240CC8C333F2
:10002F00C4540F4420C8834004F456800146F6DFC1
:10003F00E4800B01020408102040809000E6E47E6B
:10004F00019360BCA3FF543F30E509541FFEE493B6
:10005F00A360010ECF54C025E060A840B8E493A37D
:10006F00FAE493A3F8E493A3C8C582C8CAC583CAA8
:10007F00F0A3C8C582C8CAC583CADFE9DEE780BE60
:0100F9000006
:00000001FF
