:0300000002029366
:0C029300787FE4F6D8FD75811202009718
:06028400C2A58F80D2A785
:08028A007F027EEFDEFEDFFCC7
:010292002249
:0A02AB00C2A6120284C2A702028A52
:1001F100CFCDCFCECCCE1200427C007D0A12004280
:04020100ED2430FFB9
:0A020500D2A6120284C2A702028AE8
:10024500AE07BE0104ED148006BE0209ED243F444D
:0602550080FF1202AB2243
:100270007F381202AB7F0C1202AB7F061202AB7FFB
:04028000010202ABCA
:0A02B500AC03120245AF040202057B
:0601CE008B088A09890A72
:1001D400120245E4FDAB08AA09A90A8D82758300C1
:0C01E400120003FF60061202050D80E906
:0101F00022EC
:0C019B007F0AEA24FFFDE434FFFC7E0034
:0801A7008E0F8F108C118D12D8
:1001AF007F017E00E4FBEBC39512E5116480F874C8
:0E01BF008098500AAC0FAD101200300B80E893
:0101CD00220F
:04020F008A0A8B0BC1
:10021300120245AA0CEAD39400400D12019BAC0ACA
:08022300AD0B1201F11A80ED90
:01022B0022B0
:1000F000120245C3EA64809480400B7F2B120205F4
:100100008A0D8B0E800E7F2D120205C3E49BF50E27
:10011000E49AF50DAA0CEAD39400400D12019BACB1
:090120000DAD0E1201F11A80ED83
:0101290022B3
:04012A008A0A8B0BA7
:10012E00120245AA0CEAD3940040297F1012019DB9
:10013E00AC0AAD0BCFCDCFCECCCE120042EF540FCA
:10014E00FEC3940AEE5004243080022437FF1202BC
:04015E00051A80D12D
:01016200227A
:040163008A0A8B0B6E
:10016700120245AA0CEAD394004028EA24FFFDE4D2
:1001770034FFFC7F027E001201A7AC0AAD0BCFCD86
:10018700CFCECCCE120042EF54012430FF1202052D
:030197001A80D2F9
:01019A002242
:0C029F0048656C6C6F20576F726C640037
:10022C00D3EF9400EE9400400F7D0B7CBEDCFEDD22
:08023C00FCEF1F70EB1E80E8CF
:010244002297
:10025B00D3EF9400EE9400400B7D19DDFEEF1F7081
:04026B00EF1E80EC16
:01026F00226C
:100097001202707B467D017F011202B57BFF7A0257
:1000A700799F7D017F011201CE750C057B0F7A27A1
:1000B7007D017F0112020F750C057B0F7A277D01E9
:1000C7007F011200F0120270750C027B557A007DD9
:1000D700017F0112012A120270750C057B057A0057
:0900E7007D017F0112016380FE1E
:10000300BB010CE58229F582E5833AF583E02250B2
:1000130006E92582F8E622BBFE06E92582F8E222FC
:0D002300E58229F582E5833AF583E4932216
:10003000EF8DF0A4A8F0CF8CF0A428CE8DF0A42EE4
:02004000FE229E
:10004200BC000BBE0029EF8DF084FFADF022E4CCA2
:10005200F875F008EF2FFFEE33FEEC33FCEE9DEC6B
:10006200984005FCEE9DFE0FD5F0E9E4CEFD22EDB1
:10007200F8F5F0EE8420D21CFEADF075F008EF2FFB
:10008200FFED33FD4007985006D5F0F222C398FDEC
:050092000FD5F0EA2289
:00000001FF
