:03000000020003F8
:0C000300787FE4F6D8FD75811802004AF1
:10010F0011083F065B4F666D7D077F6F777C395E09
:03011F00797100F3
:0400F2007F027E000B
:1000F600D3EF9400EE9400400F7D027CEFDCFEDD32
:08010600FCEF1F70EB1E80E806
:01010E0022CE
:10008F00D2A4D2A3D2A28509801200F2D2A4D2A305
:10009F00C2A2850A801200F2D2A4C2A3D2A2850BFB
:1000AF00801200F2D2A4C2A3C2A2850C801200F269
:1000BF00C2A4D2A3D2A2850D801200F2C2A4D2A3F1
:1000CF00C2A2850E801200F2C2A4C2A3D2A2850FD3
:1000DF00801200F2C2A4C2A3C2A28510801200F245
:0300EF0002008F7D
:10000F0002008FE493A3F8E493A34003F68001F278
:10001F0008DFF48029E493A3F85407240CC8C333F2
:10002F00C4540F4420C8834004F456800146F6DFC1
:10003F00E4800B010204081020408090010FE47E41
:10004F00019360BCA3FF543F30E509541FFEE493B6
:10005F00A360010ECF54C025E060A840B8E493A37D
:10006F00FAE493A3F8E493A3C8C582C8CAC583CAA8
:10007F00F0A3C8C582C8CAC583CADFE9DEE780BE60
:0101220000DC
:00000001FF
