:030000000201C03A
:0C01C000787FE4F6D8FD7581220202076A
:1003860011083F065B4F666D7D077F6F777C395E90
:030396007971007A
:10036D00D3EF9400EE9400400F7D0B7CBEDCFEDDE0
:08037D00FCEF1F70EB1E80E88D
:010385002255
:10034500D2A3C2A2EC75F00A842408F8E6F5807FF2
:03035500107E0017
:10035800D3EF9400EE9400400B7D19DDFEEF1F7083
:04036800EF1E80EC18
:01036C00226E
:1002DA0020B10A7FE47E0C1203587F012220B00A63
:1002EA007FE47E0C1203587F022220B20A7FE47E4A
:1002FA000C1203587F032220B30A7F307E75120343
:07030A00587F04227F00224E
:1000E200E4F51CF51BF51AF519F51FF520F521F5B8
:1000F200221202DAEF14607114700302018A147082
:10010200030201971470030201B1240470E3E51F96
:10011200700C12031112024C1202940200F3751DAC
:1001220000751E62E51E151EAE1D7002151D4E6085
:100132000CE412031112024C12029480E7E51C2413
:1001420001F51CE4351BF51BE4351AF51AE43519E3
:10015200F5197F807E517D017C00AB1CAA1BA91A78
:10016200F8C31200D1708A80080520E520B4180C6B
:10017200E4F51CF51BF51AF5190200F3E51C241031
:10018200F51CE51B340E80180521E51C243CF51CEA
:10019200E4351B800B0522E51C2401F51CE4351B0C
:1001A200F51BE4351AF51AE43519F5190200F3E5E1
:0E01B2001F70047F0180027F008F1F0200F388
:100311007B107A0EF9F8AF1CAE1BAD1AAC191200A6
:010321003F9C
:10032200AC07D2A4120345D2A4C2A3D2A2EC75F0A8
:100332000A84740825F0F8E6F580D2877F107E00E3
:030342000203585B
:10024C00E47B107A0EF9F8AF1CAE1BAD1AAC191288
:10025C00003FAC00AD01AE02AF03E47B3CFAF9F811
:03026C0012003F3E
:10026F00AC07D2A4C2A3120347C2A4D2A3D2A2EC5A
:10027F0075F00A84740825F0F8E6F580D2877F10B0
:05028F007E000203588F
:10029400E47B107A0EF9F8AF1CAE1BAD1AAC191240
:1002A400003FAC00AD01AE02AF03E47B3CFAF9F8C9
:0502B40012003FAF0342
:1002B900AC07C2A4120345C2A4C2A3D2A2EC75F032
:1002C9000A84740825F0F8E6F5807F147E0002039D
:0102D90058CC
:1001CC000200E2E493A3F8E493A34003F68001F267
:1001DC0008DFF48029E493A3F85407240CC8C33334
:1001EC00C4540F4420C8834004F456800146F6DF03
:1001FC00E4800B0102040810204080900386E47E0A
:10020C00019360BCA3FF543F30E509541FFEE493F7
:10021C00A360010ECF54C025E060A840B8E493A3BE
:10022C00FAE493A3F8E493A3C8C582C8CAC583CAE9
:10023C00F0A3C8C582C8CAC583CADFE9DEE780BEA1
:010399000063
:1000030075F008758200EF2FFFEE33FECD33CDCCB4
:1000130033CCC58233C5829BED9AEC99E582984037
:100023000CF582EE9BFEED9AFDEC99FC0FD5F0D614
:10003300E4CEFBE4CDFAE4CCF9A88222B800C1B93E
:100043000059BA002DEC8BF084CFCECDFCE5F0CB7C
:10005300F97818EF2FFFEE33FEED33FDEC33FCEBB5
:1000630033FB10D703994004EB99FB0FD8E5E4F970
:10007300FA227818EF2FFFEE33FEED33FDEC33FC5D
:10008300C933C910D7059BE99A4007EC9BFCE99A51
:10009300F90FD8E0E4C9FAE4CCFB2275F010EF2F96
:1000A300FFEE33FEED33FDCC33CCC833C810D70796
:1000B3009BEC9AE899400AED9BFDEC9AFCE899F8D1
:0E00C3000FD5F0DAE4CDFBE4CCFAE4C8F92264
:1000D100EB9FF5F0EA9E42F0E99D42F0E89C45F085
:0100E10022FC
:00000001FF
