:0300000002025E9B
:0C025E00787FE4F6D8FD7581290202A526
:0700030001240002220000AD
:1003CE0075A0FE12057312036FEF24FE6018146001
:1003DE002314602E240370EEE52470047F01800246
:1003EE007F008F2480E0E52470047F0180027F006F
:1003FE008F2480D2E52470047F0180027F008F2439
:10040E0080C4E52470047F0180027F008F2480B6B3
:03000B000202EA04
:0B02EA00C0E0C0D075D000C006C00707
:1002F500758A66758CFC0523E52370020522C39477
:10030500E8E5229403405A752200752300E5A0F420
:10031500FFBF80047F0180027F00E52470047E0119
:1003250080027E00EF5E600575A0FE8034E5A0F4D6
:10033500FFBF01047F0180027F00E524B401047E34
:100345000180027E00EF5E600575A07F8013E524C5
:100355007007E5A0F425E08005E5A0F4C313F4F5E6
:01036500A0F7
:09036600D007D006D0D0D0E0325F
:10055A00D3EF9400EE9400400F7D0B7CBEDCFEDDF1
:08056A00FCEF1F70EB1E80E89E
:010572002266
:1005B700D3EF9400EE9400400B7D19DDFEEF1F7022
:0405C700EF1E80ECB7
:0105CB00220D
:0605E000C2A58F80D2A726
:0805E6007F027EEFDEFEDFFC68
:0105EE0022EA
:0A05EF00C2A61205E0C2A70205E64D
:10051F00CFCDCFCECCCE1202097C007D0A120209BC
:04052F00ED2430FF88
:0A053300D2A61205E0C2A70205E6F9
:1005A100AE07BE0104ED148006BE0209ED243F44EE
:0605B10080FF1205EF229D
:1005CC007F381205EF7F0C1205EF7F061205EF7FC7
:0405DC00010205EF24
:0A05F900AC031205A1AF04020533A4
:0604FC008B258A268927EA
:100502001205A1E4FDAB25AA26A9278D82758300D9
:0C0512001201CAFF60061205330D80E9DB
:01051E0022BA
:0C04C9007F0AEA24FFFDE434FFFC7E0003
:0804D5008E1E8F1F8C208D216B
:1004DD007F017E00E4FBEBC39521E5206480F87479
:0E04ED008098500AAC1EAD1F1201F70B80E87C
:0104FB0022DE
:04053D008A118B1282
:100541001205A1AA13EAD39400400D1204C9AC11FB
:08055100AD1212051F1A80ED26
:01055900227F
:10041E001205A1C3EA64809480400B7F2B12053332
:10042E008A0D8B0E800E7F2D120533C3E49BF50EC5
:10043E00E49AF50DAA0CEAD39400400D1204C9AC4F
:09044E000DAD0E12051F1A80ED20
:010457002282
:040458008A168B175E
:10045C001205A1AA18EAD3940040297F101204CBEC
:10046C00AC16AD17CFCDCFCECCCE120209EF540FB8
:10047C00FEC3940AEE5004243080022437FF120588
:04048C00331A80D1CE
:010490002249
:040491008A1B8B1C1B
:100495001205A1AA1DEAD394004028EA24FFFDE431
:1004A50034FFFC7F027E001204D5AC1BAD1CCFCD02
:1004B500CFCECCCE120209EF54012430FF12053302
:0304C5001A80D2C8
:0104C8002211
:10000E00E4F528F5297590FFC2932094177F407E62
:10001E00061205B73094FD7F407E061205B775288F
:10002E000075290D2095177F407E061205B7309575
:10003E00FD7F407E061205B77528007529092096AA
:10004E00177F407E061205B73096FD7F407E061262
:10005E0005B77528007529052097177F407E061273
:10006E0005B73097FD7F407E061205B775280075DF
:10007E0029017590FFC2922094177F407E061205CB
:10008E00B73094FD7F407E061205B775280075299E
:10009E000E2095177F407E061205B73095FD7F40E6
:1000AE007E061205B775280075290A2096177F401F
:1000BE007E061205B73096FD7F407E061205B77597
:1000CE0028007529062097177F407E061205B73047
:1000DE0097FD7F407E061205B775280075290275BB
:1000EE0090FFC2912094177F407E061205B7309480
:1000FE00FD7F407E061205B775280075290F2095E5
:10010E00177F407E061205B73095FD7F407E0612A2
:10011E0005B775280075290B2096177F407E0612AD
:10012E0005B73096FD7F407E061205B7752800751F
:10013E0029072097177F407E061205B73097FD7F5F
:10014E00407E061205B77528007529037590FFC20B
:10015E00902094177F407E061205B73094FD7F40A5
:10016E007E061205B77528007529102095177F4059
:10017E007E061205B73095FD7F407E061205B775D7
:10018E00280075290C2096177F407E061205B73081
:10019E0096FD7F407E061205B7752800752908204A
:1001AE0097177F407E061205B73097FD7F407E067B
:0B01BE001205B7752800752904AF2951
:0101C9002213
:10036F0020B1147F407E061205B730B1FD7F407E6D
:10037F00061205B77F012220B0147F407E061205BA
:10038F00B730B0FD7F407E061205B77F022220B244
:10039F00147F407E061205B730B2FD7F407E0612F5
:1003AF0005B77F032220B3147F407E061205B730B6
:0F03BF00B3FD7F407E061205B77F04227F002228
:100573005389F0438901758A66758CFCC28DD28CD0
:07058300D2A9D2AFC2B922D8
:10058A0053890F438910758B66758DFCC28FD28E85
:07059A00D2ABD2AFC2B922BF
:10026A000203CEE493A3F8E493A34003F68001F2D9
:10027A0008DFF48029E493A3F85407240CC8C33395
:10028A00C4540F4420C8834004F456800146F6DF64
:10029A00E4800B0102040810204080900003E47EF1
:1002AA00019360BCA3FF543F30E509541FFEE49359
:1002BA00A360010ECF54C025E060A840B8E493A320
:1002CA00FAE493A3F8E493A3C8C582C8CAC583CA4B
:1002DA00F0A3C8C582C8CAC583CADFE9DEE780BE03
:01000A0000F5
:1001CA00BB010CE58229F582E5833AF583E02250EA
:1001DA0006E92582F8E622BBFE06E92582F8E22234
:0D01EA00E58229F582E5833AF583E493224E
:1001F700EF8DF0A4A8F0CF8CF0A428CE8DF0A42E1C
:02020700FE22D5
:10020900BC000BBE0029EF8DF084FFADF022E4CCD9
:10021900F875F008EF2FFFEE33FEEC33FCEE9DECA2
:10022900984005FCEE9DFE0FD5F0E9E4CEFD22EDE8
:10023900F8F5F0EE8420D21CFEADF075F008EF2F32
:10024900FFED33FD4007985006D5F0F222C398FD23
:050259000FD5F0EA22C0
:00000001FF
