:1000030018183D5A982828285A5A3C1818281808AE
:1000130030183C1C1818180830987C181828180831
:1000230010183C3C1828280830183C3C1824244459
:1000330030183C3818282444180C1E1C0C14244473
:100043000030183C1C38284400C060F0F0304844AD
:100053000030183C1C382844180C1E1C0C14244473
:100063000030183C1C38284400C060F0F03048448D
:100073000030183C1C382844180C1E1C0C14244453
:100083000030183C1C38284400C060F0F03048446D
:100093000030183C1C382844180C1E1C0C14244433
:0800A300000000000000000055
:1000AB00E4F50AE4F508E508250990000393FD7CC7
:1000BB0000AF081201130508E508C3940840E705D3
:1000CB000AE50AD3942840DBE4F50A74082509F500
:0B00DB0009D394A040CDE4F50980C8D3
:04013500EF4E601910
:10013900750B01750C02750D02D50DFDD50CFAD59F
:070149000BF7EF1F70E61E2B
:0301500080E32227
:0200E600AD0764
:1000E800E4FB74807E00A803088006CEA2E713CE46
:1000F80013D8F8FFEDF582EF558224FF92B4D2B6FB
:0A010800C2B60BBB08DCD2B5C2B5CD
:0101120022CA
:05015F00C2B6C2B5228A
:10011300AA07AF051200E6AF027480A807088002A1
:10012300C313D8FCF4F5807F017E0012013575807E
:02013300FF22A9
:03000000020153A7
:0C015300787FE4F6D8FD75810D0200AB4A
:00000001FF
