:0300000002016A90
:0C016A00787FE4F6D8FD75811E0201B11B
:1002A00011083F065B4F666D7D077F6F777C395E77
:0302B00079710061
:10028700D3EF9400EE9400400F7D0B7CBEDCFEDDC7
:08029700FCEF1F70EB1E80E874
:01029F00223C
:1001F600D2A3C2A2EC75F00A842408F8E6F5807F43
:03020600107E0067
:10020900D3EF9400EE9400400B7D19DDFEEF1F70D3
:04021900EF1E80EC68
:01021D0022BE
:1000D100E4F51CF51BF51AF519751D00751E62E591
:1000E1001E151EAE1D7002151D4E6065E47B107A53
:1000F1000EF9F8AF1CAE1BAD1AAC1912003F12027B
:1001010043E47B107A0EF9F8AF1CAE1BAD1AAC19A3
:1001110012003FAC00AD01AE02AF03E47B3CFAF943
:10012100F812003F12021EE47B107A0EF9F8AF1CA0
:10013100AE1BAD1AAC1912003FAC00AD01AE02AF5F
:1001410003E47B3CFAF9F812003FAF031202668028
:100151008EE51C2401F51CE4351BF51BE4351AF56D
:090161001AE43519F5190200DA5F
:10024300AC07D2A41201F6D2A4C2A3D2A2EC75F0D9
:100253000A84740825F0F8E6F580D2877F107E00C3
:030263000202098B
:10021E00AC07D2A4C2A31201F8C2A4D2A3D2A2ECFC
:10022E0075F00A84740825F0F8E6F580D2877F1001
:05023E007E0002020930
:10026600AC07C2A41201F6C2A4C2A3D2A2EC75F0D6
:100276000A84740825F0F8E6F5807F147E000202F1
:01028600096E
:100176000200D1E493A3F8E493A34003F68001F2CE
:1001860008DFF48029E493A3F85407240CC8C3338A
:10019600C4540F4420C8834004F456800146F6DF59
:1001A600E4800B01020408102040809002A0E47E47
:1001B600019360BCA3FF543F30E509541FFEE4934E
:1001C600A360010ECF54C025E060A840B8E493A315
:1001D600FAE493A3F8E493A3C8C582C8CAC583CA40
:1001E600F0A3C8C582C8CAC583CADFE9DEE780BEF8
:0102B300004A
:1000030075F008758200EF2FFFEE33FECD33CDCCB4
:1000130033CCC58233C5829BED9AEC99E582984037
:100023000CF582EE9BFEED9AFDEC99FC0FD5F0D614
:10003300E4CEFBE4CDFAE4CCF9A88222B800C1B93E
:100043000059BA002DEC8BF084CFCECDFCE5F0CB7C
:10005300F97818EF2FFFEE33FEED33FDEC33FCEBB5
:1000630033FB10D703994004EB99FB0FD8E5E4F970
:10007300FA227818EF2FFFEE33FEED33FDEC33FC5D
:10008300C933C910D7059BE99A4007EC9BFCE99A51
:10009300F90FD8E0E4C9FAE4CCFB2275F010EF2F96
:1000A300FFEE33FEED33FDCC33CCC833C810D70796
:1000B3009BEC9AE899400AED9BFDEC9AFCE899F8D1
:0E00C3000FD5F0DAE4CDFBE4CCFAE4C8F92264
:00000001FF
