:0300000002052BCB
:0C052B00787FE4F6D8FD7581240201BF42
:1004C400D3EF9400EE9400400F7D0B7CBEDCFEDD88
:0804D400FCEF1F70EB1E80E835
:0104DC0022FD
:1004F300D3EF9400EE9400400B7D19DDFEEF1F70E7
:04050300EF1E80EC7B
:0105070022D1
:06051C00C2A58F80D2A7EA
:080522007F027EEFDEFEDFFC2C
:01052A0022AE
:0A053700C2A612051CC2A70205228D
:10048900CFCDCFCECCCE12030C7C007D0A12030C4B
:04049900ED2430FF1F
:0A049D00D2A612051CC2A702052218
:1004DD00AE07BE0104ED148006BE0209ED243F44B3
:0604ED0080FF120537221A
:100508007F381205377F0C1205377F061205377FB3
:0405180001020537A0
:0A054100AC031204DDAF0402049DB8
:060466008B228A23892489
:10046C001204DDE4FDAB22AA23A9248D827583003E
:0C047C001202CDFF600612049D0D80E905
:010488002251
:0C040C007F0AEA24FFFDE434FFFC7E00C0
:080418008E1E8F1F8C208D2128
:100420007F017E00E4FBEBC39521E5206480F87436
:0E0430008098500AAC1EAD1F1202FA0B80E835
:01043E00229B
:0404A7008A118B1219
:1004AB001204DDAA13EAD39400400D12040CAC1114
:0804BB00AD121204891A80ED54
:0104C3002216
:100361001204DDC3EA64809480400B7F2B12049D4C
:100371008A0D8B0E800E7F2D12049DC3E49BF50E1A
:10038100E49AF50DAA0CEAD39400400D12040CACCA
:090391000DAD0E1204891A80ED75
:01039A002240
:04039B008A168B171C
:10039F001204DDAA18EAD3940040297F1012040E2C
:1003AF00AC16AD17CFCDCFCECCCE12030CEF540F72
:1003BF00FEC3940AEE5004243080022437FF120447
:0403CF009D1A80D122
:0103D3002207
:0403D4008A1B8B1CD9
:1003D8001204DDAA1DEAD394004028EA24FFFDE4B4
:1003E80034FFFC7F027E00120418AC1BAD1CCFCD7D
:1003F800CFCECCCE12030CEF54012430FF12049D53
:030408001A80D285
:01040B0022CE
:10043F003100320033003400350036003700380009
:10044F003900313000313100313200313300313475
:07045F0000313500313600C9
:1001BF00120508120003EF14B4100050F69001DA84
:1001CF0075F003A4C58325F0C5837302020A0202EA
:1001DF001602022202022E02023902024402024FCA
:1001EF0002025A02026502027002027B02028602BA
:1001FF00029102029C0202A70202BA1205087BFFBB
:10020F007A04793F0202B01205087BFF7A04794124
:10021F000202B01205087BFF7A0479430202B01282
:10022F0005087BFF7A04794580771205087BFF7AF2
:10023F00047947806C1205087BFF7A047949806145
:10024F001205087BFF7A04794B80561205087BFF55
:10025F007A04794D804B1205087BFF7A04794F8021
:10026F00401205087BFF7A04795180351205087B0F
:10027F00FF7A047954802A1205087BFF7A04795794
:10028F00801F1205087BFF7A04795A801412050823
:10029F007BFF7A04795D80091205087BFF7A047968
:1002AF00607D017F011204660201C21205087BFF07
:0E02BF007A0479637D017F011204660201C298
:10000300E4F522F5237590FFC2932094177F407E79
:10001300061204F33094FD7F407E061204F375222A
:100023000075230D2095177F407E061204F330954B
:10003300FD7F407E061204F3752200752309209686
:10004300177F407E061204F33096FD7F407E061232
:1000530004F37522007523052097177F407E06124F
:1000630004F33097FD7F407E061204F3752200757A
:1000730023017590FFC2922094177F407E061204DD
:10008300F33094FD7F407E061204F375220075233E
:100093000E2095177F407E061204F33095FD7F40B6
:1000A3007E061204F375220075230A2096177F40FB
:1000B3007E061204F33096FD7F407E061204F3752C
:1000C30022007523062097177F407E061204F33023
:1000D30097FD7F407E061204F37522007523027597
:1000E30090FFC2912094177F407E061204F3309450
:1000F300FD7F407E061204F375220075230F2095C1
:10010300177F407E061204F33095FD7F407E061272
:1001130004F375220075230B2096177F407E061289
:1001230004F33096FD7F407E061204F375220075BA
:1001330023072097177F407E061204F33097FD7F35
:10014300407E061204F37522007523037590FFC2E7
:10015300902094177F407E061204F33094FD7F4075
:100163007E061204F37522007523102095177F4035
:100173007E061204F33095FD7F407E061204F3756C
:10018300220075230C2096177F407E061204F3305D
:1001930096FD7F407E061204F37522007523082026
:1001A30097177F407E061204F33097FD7F407E064B
:0B01B3001204F3752200752304AF2333
:0101BE00221E
:1002CD00BB010CE58229F582E5833AF583E02250E6
:1002DD0006E92582F8E622BBFE06E92582F8E22230
:0D02ED00E58229F582E5833AF583E493224A
:1002FA00EF8DF0A4A8F0CF8CF0A428CE8DF0A42E18
:02030A00FE22D1
:10030C00BC000BBE0029EF8DF084FFADF022E4CCD5
:10031C00F875F008EF2FFFEE33FEEC33FCEE9DEC9E
:10032C00984005FCEE9DFE0FD5F0E9E4CEFD22EDE4
:10033C00F8F5F0EE8420D21CFEADF075F008EF2F2E
:10034C00FFED33FD4007985006D5F0F222C398FD1F
:05035C000FD5F0EA22BC
:00000001FF
