:03000000020455A2
:0C045500787FE4F6D8FD7581260204755E
:07047500120432E4FEFF2235
:1003EE00D3EF9400EE9400400F7D0B7CBEDCFEDD5F
:0803FE00FCEF1F70EB1E80E80C
:0104060022D3
:10041D00D3EF9400EE9400400B7D19DDFEEF1F70BD
:04042D00EF1E80EC52
:0104310022A8
:06044600C2A58F80D2A7C1
:08044C007F027EEFDEFEDFFC03
:010454002285
:0A046100C2A6120446C2A702044C12
:1003B300CFCDCFCECCCE1201FE7C007D0A1201FE42
:0403C300ED2430FFF6
:0A03C700D2A6120446C2A702044C9D
:10040700AE07BE0104ED148006BE0209ED243F4489
:0604170080FF12046122C7
:100432007F381204617F0C1204617F061204617F0F
:04044200010204614E
:0A046B00AC03120407AF040203C73C
:060390008B228A23892460
:10039600120407E4FDAB22AA23A9248D82758300EB
:0C03A6001201BFFF60061203C70D80E9C2
:0103B2002228
:0C035D007F0AEA24FFFDE434FFFC7E0070
:080369008E1E8F1F8C208D21D8
:100371007F017E00E4FBEBC39521E5206480F874E6
:0E0381008098500AAC1EAD1F1201EC0B80E8F4
:01038F00224B
:0403D1008A118B12F0
:1003D500120407AA13EAD39400400D12035DAC1171
:0803E500AD121203B31A80ED02
:0103ED0022ED
:1002B200120407C3EA64809480400B7F2B1203C7A9
:1002C2008A0D8B0E800E7F2D1203C7C3E49BF50EA1
:1002D200E49AF50DAA0CEAD39400400D12035DAC2A
:0902E2000DAD0E1203B31A80EDFC
:0102EB0022F0
:0402EC008A168B17CC
:1002F000120407AA18EAD3940040297F1012035F62
:10030000AC16AD17CFCDCFCECCCE1201FEEF540F31
:10031000FEC3940AEE5004243080022437FF1203F7
:04032000C71A80D1A7
:0103240022B6
:040325008A1B8B1C88
:10032900120407AA1DEAD394004028EA24FFFDE439
:1003390034FFFC7F027E00120369AC1BAD1CCFCDDC
:10034900CFCECCCE1201FEEF54012430FF1203C7E9
:030359001A80D235
:01035C00227E
:10000300E4F525F5267590FFC2932094177F407E73
:100013000612041D3094FD7F407E0612041D7525D3
:100023000075260D2095177F407E0612041D30951E
:10003300FD7F407E0612041D752500752609209656
:10004300177F407E0612041D3096FD7F407E061208
:10005300041D7525007526052097177F407E06121F
:10006300041D3097FD7F407E0612041D7525007523
:1000730026017590FFC2922094177F407E061204DA
:100083001D3094FD7F407E0612041D7525007526E4
:100093000E2095177F407E0612041D3095FD7F408C
:1000A3007E0612041D75250075260A2096177F40CB
:1000B3007E0612041D3096FD7F407E0612041D75D8
:1000C30025007526062097177F407E0612041D30F3
:1000D30097FD7F407E0612041D7525007526027567
:1000E30090FFC2912094177F407E0612041D309426
:1000F300FD7F407E0612041D75250075260F209591
:10010300177F407E0612041D3095FD7F407E061248
:10011300041D75250075260B2096177F407E061259
:10012300041D3096FD7F407E0612041D7525007563
:1001330026072097177F407E0612041D3097FD7F08
:10014300407E0612041D7525007526037590FFC2B7
:10015300902094177F407E0612041D3094FD7F404B
:100163007E0612041D7525007526102095177F4005
:100173007E0612041D3095FD7F407E0612041D7518
:10018300250075260C2096177F407E0612041D302D
:1001930096FD7F407E0612041D75250075260820F6
:1001A30097177F407E0612041D3097FD7F407E0621
:0B01B30012041D752500752604AF2600
:0101BE00221E
:1002530020B1147F407E0612041D30B1FD7F407E25
:100263000612041D7F012220B0147F407E06120473
:100273001D30B0FD7F407E0612041D7F022220B296
:10028300147F407E0612041D30B2FD7F407E0612AD
:10029300041D7F032220B3147F407E0612041D3009
:0F02A300B3FD7F407E0612041D7F04227F0022E0
:1001BF00BB010CE58229F582E5833AF583E02250F5
:1001CF0006E92582F8E622BBFE06E92582F8E2223F
:0D01DF00E58229F582E5833AF583E4932259
:1001EC00EF8DF0A4A8F0CF8CF0A428CE8DF0A42E27
:0201FC00FE22E1
:1001FE00BC000BBE0029EF8DF084FFADF022E4CCE5
:10020E00F875F008EF2FFFEE33FEEC33FCEE9DECAD
:10021E00984005FCEE9DFE0FD5F0E9E4CEFD22EDF3
:10022E00F8F5F0EE8420D21CFEADF075F008EF2F3D
:10023E00FFED33FD4007985006D5F0F222C398FD2E
:05024E000FD5F0EA22CB
:00000001FF
